:020000040800F2
:1000000000000220850B0008D9090008DB09000860
:10001000DD090008DF090008E10900080000000010
:10002000000000000000000000000000E3090008DC
:10003000E509000800000000E7090008E9090008D8
:10004000D50B0008D50B0008D50B0008D50B000810
:10005000D50B0008D50B0008D50B0008D50B000800
:10006000D50B0008D50B0008D50B0008D50B0008F0
:10007000D50B0008D50B0008D50B0008D50B0008E0
:10008000D50B0008D50B0008D50B0008D50B0008D0
:10009000D50B0008D50B0008D50B0008D50B0008C0
:1000A000D50B0008D50B0008D50B0008D50B0008B0
:1000B000D50B0008D50B0008D50B0008D50B0008A0
:1000C000D50B0008D50B0008D50B0008D50B000890
:1000D000D50B0008F1090008D50B0008D50B000866
:1000E000D50B0008D50B0008D50B0008D50B000870
:1000F000D50B0008D50B0008D50B0008D50B000860
:10010000D50B0008D50B0008D50B0008D50B00084F
:10011000D50B0008D50B0008D50B0008D50B00083F
:10012000D50B0008D50B0008310A0008D50B0008D4
:10013000D50B0008D50B0008D50B0008D50B00081F
:10014000D50B0008D50B0008D50B0008D50B00080F
:10015000D50B0008D50B0008410A0008D50B000894
:10016000D50B0008D50B0008D50B0008D50B0008EF
:10017000D50B0008D50B0008D50B000800000000C7
:08018000D50B0008D50B0008A7
:1001880010B5054C237833B9044B13B10448AFF3C9
:1001980000800123237010BD3C04002000000000F3
:1001A8009427000808B5034B1BB103490348AFF374
:1001B800008008BD000000004004002094270008CB
:1001C80053B94AB9002908BF00281CBF4FF0FF31B6
:1001D8004FF0FF3000F074B9ADF1080C6DE904CEB2
:1001E80000F006F8DDF804E0DDE9022304B070470A
:1001F8002DE9F047089E0D4604468846002B4DD150
:100208008A42944668D9B2FA82F252B101FA02F3EC
:10021800C2F1200120FA01F10CFA02FC41EA0308BC
:1002280094404FEA1C45210CB8FBF5FE1FFA8CF7E9
:1002380005FB1E8341EA03430EFB07F199420BD9E4
:100248001CEB03030EF1FF3080F01E81994240F24F
:100258001B81AEF1020E63445B1AA4B2B3FBF5F046
:1002680005FB103344EA034400FB07F7A7420AD909
:100278001CEB040400F1FF3380F00881A74240F230
:10028800058164440238E41B40EA0E4000211EB197
:10029800D4400023C6E90043BDE8F0878B4208D963
:1002A800002E00F0EE800021C6E900050846BDE8F2
:1002B800F087B3FA83F100294AD1AB4202D38242D4
:1002C80000F2F980841A65EB030301209846002E9A
:1002D800E2D0C6E90048DFE702B9FFDEB2FA82F2EF
:1002E800002A40F09180A1EB0C054FEA1C471FFA49
:1002F8008CFE0121B5FBF7F307FB1350250C45EAEB
:1003080000450EFB03F0A84208D91CEB050503F1D4
:10031800FF3802D2A84200F2CB8043462D1AA4B27D
:10032800B5FBF7F007FB105544EA05440EFB00FE49
:10033800A64508D91CEB040400F1FF3502D2A645F6
:1003480000F2BB802846A4EB0E0440EA03409EE777
:10035800C1F120078B4022FA07FC4CEA030C20FA73
:1003680007F405FA01F31C43FD404FEA1C4900FA63
:1003780001F3B5FBF9F8200C1FFA8CFE09FB1855A0
:1003880040EA054508FB0EF0A84202FA01F20BD933
:100398001CEB050508F1FF3A80F08880A84240F27E
:1003A8008580A8F1020865442D1AA4B2B5FBF9F0BE
:1003B80009FB105544EA054500FB0EFEAE4508D979
:1003C8001CEB050500F1FF346CD2AE456AD9023842
:1003D800654440EA0840A0FB0294A5EB0E05A5423F
:1003E800C846A64656D353D05EB1B3EB080265EBB8
:1003F8000E0505FA07F722FA01F3CD401F43C6E9B7
:1004080000750021BDE8F087C2F1200320FA03F14E
:100418000CFA02FC25FA03F395400D434FEA1C47FA
:100428001FFA8CFEB3FBF7F107FB11302B0C43EAE4
:10043800004301FB0EF0984204FA02F408D91CEBC1
:10044800030301F1FF382FD298422DD902396344B2
:100458001B1AADB2B3FBF7F007FB103345EA0345AF
:1004680000FB0EF3AB4208D91CEB050500F1FF3881
:1004780016D2AB4214D902386544ED1A40EA01415C
:1004880038E73146304607E78646E5E61846FAE695
:100498004B45A9D2B9EB020864EB0C0E0138A3E76F
:1004A8004046EAE7204694E74146D1E7D0467BE755
:1004B800023B654432E7084609E76444023842E7EC
:1004C800704700BF844641EA000313F003036DD16F
:1004D800403A41D351F8043B40F8043B51F8043BFF
:1004E80040F8043B51F8043B40F8043B51F8043B06
:1004F80040F8043B51F8043B40F8043B51F8043BF6
:1005080040F8043B51F8043B40F8043B51F8043BE5
:1005180040F8043B51F8043B40F8043B51F8043BD5
:1005280040F8043B51F8043B40F8043B51F8043BC5
:1005380040F8043B51F8043B40F8043B51F8043BB5
:1005480040F8043B51F8043B40F8043B51F8043BA5
:1005580040F8043B403ABDD2303211D351F8043B45
:1005680040F8043B51F8043B40F8043B51F8043B85
:1005780040F8043B51F8043B40F8043B103AEDD2F4
:100588000C3205D351F8043B40F8043B043AF9D245
:10059800043208D0D2071CBF11F8013B00F8013B18
:1005A80001D30B8803806046704700BF082A13D325
:1005B8008B078DD010F003038AD0C3F10403D21A3D
:1005C800DB071CBF11F8013B00F8013B80D331F871
:1005D800023B20F8023B7BE7043AD9D3013A11F8F1
:1005E800013B00F8013BF9D20B7803704B7843705C
:1005F8008B78837060467047024600200B460139AD
:1006080089B28BB112F8013B5840002302E0400840
:100618000133DBB2072BF1D810F0010FF7D04008F7
:1006280080F08C00C0B2F3E7704710B504464FF471
:10063800C8720021043001F0E7FF00232370012075
:1006480010BD017070470B460178092914D810B500
:100658000446092B0DD801EB810203EB420300EBA2
:1006680083035B680BB1984701462046FFF7E9FF13
:1006780010BD4FF0FF30FBE74FF0FF307047092AFD
:1006880009D8092B07D802EB820203EB420200EBE0
:100698008202516070474FF0FF3070470220704768
:1006A80008B50A490A4800F031F838B14FF48062B9
:1006B8000021074801F0A8FF032008BD4FF480621D
:1006C8000021034801F0A0FF0420F6E758040020A9
:1006D800FC07002008B5044964234A88043103480C
:1006E80001F0CDFB012008BD58040020C00C0020FB
:1006F80008B5642301221146024801F0C0FB01201D
:1007080008BD00BFC00C002001207047F0B583B0C1
:1007180005460C4644F64213ADF80430022201A9FE
:1007280001F03EFF18B10027384603B0F0BD074678
:10073800AB782370E81C00F019F806466080B0F525
:10074800007FF1D80246691D201DFFF7BBFE731D0F
:10075800EB5C84F80E32F11C89B2A81CFFF74CFF41
:1007680094F80E328342DFD10127DDE70378407821
:1007780043EA00207047000010B582B000240194BD
:100788000D4B1A6B42F480021A631B6B03F480034F
:100798000193019B224621463A2000F07DFA3A2037
:1007A80000F0B2FA22462146462000F075FA4620AB
:1007B80000F0AAFA02B010BD0038024082B0002151
:1007C80000910B4B1A6B42F080021A631A6B02F00D
:1007D80080020092009A01911A6B42F001021A639A
:1007E8001B6B03F001030193019B02B0704700BF2C
:1007F8000038024072B6FEE700B595B030220021FD
:1008080008A801F001FF00230393049305930693BE
:1008180007930193214A116C41F080511164126CC5
:1008280002F080520192019A02931D4B1A6842F419
:1008380080421A601B6803F480430293029B0123E1
:1008480008934FF48033099302230E934FF48002E8
:100858000F92082210924FF4A87211921293042357
:10086800139308A800F0C8FD98B90F230393022337
:100878000493002305934FF4A05306934FF4805339
:100888000793052103A801F01DF820B915B05DF8FC
:1008980004FBFFF7AFFFFFF7ADFF00BF00380240D2
:1008A8000070004008B501F0E3F800F0B7F9314CEA
:1008B8002046FFF7BAFE0125257002232A462E4955
:1008C8002046FFF7DCFE02231A462C492046FFF794
:1008D800D6FE022303222A492046FFF7D0FE2B46E4
:1008E800022228492046FFF7CAFE2B460322264942
:1008F8002046FFF7C4FE254C4FF480652A460021A8
:10090800204601F081FEFFF777FFFFF757FFFFF75B
:1009180033FF00F09BF81E480268D36843F01003C9
:10092800D3602A46214601F0FBFD09E00221114867
:10093800FFF789FE4FF480621449154801F0F0FD75
:100948000C4B1B78022BF1D0032B0ED0012BF7D1C7
:10095800104B1B78DBB2012BF2D102210548FFF7BF
:1009680072FE0C4B00221A70EAE702210148FFF7D9
:100978006AFEE5E768060020A5060008A906000843
:10098800DD060008F906000811070008FC0700202A
:10099800C00C0020FC0B002082B0002100910B4B02
:1009A8005A6C42F480425A645A6C02F480420092B3
:1009B800009A01911A6C42F080521A641B6C03F081
:1009C80080530193019B02B0704700BF003802407A
:1009D800FEE7FEE7FEE7FEE7FEE770477047704771
:1009E80008B500F035F908BD00B583B00C4B1B689D
:1009F8001A6812F0100F05D1094801F0A5FB03B0E1
:100A08005DF804FB002201921A6801925B68019369
:100A1800019B034801F09FFA024B01221A70EBE791
:100A2800C00C0020FC0B002008B5024800F004FBB5
:100A380008BD00BF000C002008B5024800F0FCFA11
:100A480008BD00BF600C00207047000008B50A48C8
:100A58000A4B03604FF47A33436000238360C3601A
:100A680003610C2242618361C36101F0D9F900B9C5
:100A780008BDFFF7BFFEFBE7C00C002000100140D7
:100A880030B589B000230393049305930693079325
:100A9800026803F1804303F588339A4201D009B014
:100AA80030BD04460025019503F594335A6C42F095
:100AB80010025A645A6C02F010020192019A0295CF
:100AC8001A6B42F001021A631B6B03F001030293D5
:100AD800029B4FF4C06303930223049303230693FA
:100AE8000723079303A9204800F094FB1F48204BD5
:100AF80003604FF0006343608560C5604FF4806316
:100B0800036145618561C5610562456200F09CF934
:100B180018BB164BA3639C631648174B03604FF032
:100B280000634360402383600023C3604FF4806206
:100B3800026143618361C3610362436200F084F927
:100B480070B90C4B63639C6300221146252000F0AA
:100B5800A3F8252000F0D8F8A1E7FFF74BFED8E767
:100B6800FFF748FEEDE700BF00000240000C002040
:100B780040640240600C0020B8640240DFF834D0C2
:100B88000D480E490E4A002302E0D458C4500433DD
:100B9800C4188C42F9D30B4A0B4C002301E01360B4
:100BA8000432A242FBD3FFF74FFF01F0D5FCFFF759
:100BB80079FE704700000220000000203C0400205D
:100BC800E42700083C0400200C0D0020FEE700008C
:100BD80010B504460E4B18784FF47A73B3FBF0F354
:100BE8000C4A1068B0FBF3F000F09CF868B90F2CC1
:100BF80001D901200AE0002221464FF0FF3000F021
:100C08004BF8054B1C60002000E0012010BD00BF20
:100C180004000020000000200800002008B50B4B4D
:100C28001A6842F400721A601A6842F480621A6004
:100C38001A6842F480721A60032000F01BF80F2033
:100C4800FFF7C6FFFFF7A8FE002008BD003C0240E2
:100C5800034A1168034B1B780B441360704700BFAD
:100C6800040D002004000020014B1868704700BFE5
:100C7800040D0020074AD36823F4E0631B041B0C0F
:100C8800000200F4E060034343F0BF6343F4003321
:100C9800D360704700ED00E000B5194BDB68C3F383
:100CA8000223C3F1070CBCF1040F28BF4FF0040C5A
:100CB80003F1040EBEF1060F18D9033B4FF0FF3EB7
:100CC8000EFA0CFC21EA0C0199400EFA03F322EA11
:100CD8000303194300280BDB0901C9B200F1604086
:100CE80000F5614080F800135DF804FB0023E5E798
:100CF80000F00F000901C9B2024B1954F4E700BF14
:100D080000ED00E014ED00E0002807DB00F01F0212
:100D1800400901239340024A42F82030704700BF3F
:100D280000E100E00138B0F1807F0BD24FF0E02302
:100D38005861054AF02182F82310002098610722A3
:100D48001A6170470120704700ED00E030B4056873
:100D58002C6824F480242C60046863608368402B2A
:100D680005D0036899600368DA6030BC704703688F
:100D78009A600368D960F8E710B40368D9B21039EB
:100D88000B4AA2FB014212090A4CA25CC2655F2908
:100D980008D923F47F7323F0030304338365806D3C
:100DA80010BC704723F47F7323F003038365F6E7D1
:100DB800ABAAAAAAC4270008836A826992B9012B40
:100DC8000AD0022B02D00BB100207047C36A13F07F
:100DD800807F28D100207047C36AB3F1C07F24D038
:100DE80000207047B2F5005F09D0022B25D9032BEC
:100DF80025D1C36A13F0807F23D100207047032BCD
:100E080003D8DFE803F01404140A00207047C36A0B
:100E180013F0807F0DD100207047C36AB3F1C07F03
:100E280009D0002070470120704701207047012039
:100E3800704701207047012070470120704700204B
:100E4800704701207047000070B50446FFF70CFF9B
:100E5800002C5BD00546022384F83530002384F843
:100E680034302268136823F00103136023681A687A
:100E780012F0010F0AD0FFF7F7FE431B052BF5D937
:100E880020236365032084F8350070BD1A68204864
:100E980010406168A2680A43E1680A4321690A436D
:100EA80061690A43A1690A43E1690A43216A0A435D
:100EB8000243616A04291ED01A602668756925F004
:100EC8000705636A1D43042B07D1A36A1D43E36A20
:100ED8001BB12046FFF770FF90B975612046FFF7F8
:100EE8004BFFE26D3F239340836000206065012340
:100EF80084F83530C9E7E16A206B01430A43DBE730
:100F080040236365012084F83500BEE70120BCE773
:100F18003F8010F038B50446856D90F834000128FC
:100F28002BD0012084F8340094F83500C0B2012891
:100F380004D0002384F83430022038BD022084F81D
:100F48003500002060652046FFF700FFE26D3F2373
:100F58009340AB602268136843F016031360236C58
:100F680023B12268136843F00803136022681368EA
:100F780043F0010313600020DFE70220DDE770B5CE
:100F88000446866DFFF770FE94F83530DBB2022B0D
:100F980006D080236365002384F83430012070BDB7
:100FA80005462268136823F0160313602268536904
:100FB80023F080035361236CE3B12268136823F0A4
:100FC800080313602268136823F001031360236881
:100FD8001B6813F0010F11D0FFF746FE431B052BCA
:100FE800F5D920236365032084F83500002384F8AD
:100FF8003430D4E7A36C002BDFD1E3E7E26D3F2365
:101008009340B360012384F83530002084F834001D
:10101800C5E790F83530DBB2022B03D08023436557
:1010280001207047052380F835300268136823F0E3
:101038000103136000207047F0B583B00446002315
:101048000193724B1D68724BA3FB0535AD0A876D82
:101058003E68C26D08239340334210D003681A6873
:1010680012F0040F0BD01A6822F004021A60C26D45
:1010780008239340BB60436D43F001034365E26D71
:1010880001239340334209D02268526912F0800F3D
:1010980004D0BB60636D43F002036365E26D042313
:1010A8009340334209D02268126812F0020F04D02C
:1010B800BB60636D43F004036365E26D10239340E6
:1010C800334224D02268126812F0080F1FD0BB6088
:1010D80023681A6812F4802F0DD01B6813F4002FB0
:1010E80004D1236C9BB12046984710E0A36C73B1E0
:1010F800204698470BE01A6812F4807F03D11A68DB
:1011080022F008021A60236C0BB120469847E26D62
:1011180020239340334255D02268126812F0100FF2
:1011280050D0BB6094F83530DBB2052B0ED0236865
:101138001A6812F4802F33D01B6813F4002F2AD1B9
:10114800636C002B3ED0204698473BE0226813682A
:1011580023F0160313602268536923F08003536158
:10116800236CA3B12268136823F008031360E26DAF
:101178003F239340BB60012384F83530002384F873
:101188003430236D002B3FD0204698473CE0A36CB9
:10119800002BE7D1EBE7E36BA3B12046984711E0BA
:1011A8001A6812F4807F09D11A6822F010021A60B6
:1011B800012384F83530002384F83430E36B0BB115
:1011C80020469847636DFBB1636D13F0010F17D08C
:1011D800052384F835302268136823F0010313606F
:1011E800019B01330193AB4204D823681B6813F0B9
:1011F800010FF5D1012384F83530002384F8343009
:10120800E36C0BB12046984703B0F0BD0000002006
:10121800B5814E1B00230F2B00F2E48070B582B01D
:1012280060E085685E000324B44025EA0405CC68C4
:10123800B4402C438460456825EA02054C68C4F331
:1012480000129A402A4342605AE0DC08083450F8F9
:10125800246003F0070295000F22AA4026EA020E36
:101268000A69AA4042EA0E0240F824205CE00722FC
:1012780000E0002202FA0EF22A4302345A4D45F8E1
:1012880024205A4A94686FEA0C0224EA0C054E6836
:1012980016F4801F01D04CEA0405544CA560E4689C
:1012A80002EA04054E6816F4001F01D04CEA040552
:1012B8004E4CE560646802EA04054E6816F4003F87
:1012C80001D04CEA0405494C6560246822404D6809
:1012D80015F4803F01D04CEA0402444C22600133EB
:1012E8000F2B7DD801229A400C6804EA020C32EADE
:1012F8000404F4D14C6804F00304013C012C90D997
:101308004A6802F00302032A09D0C4685D00032278
:10131800AA4024EA02048A68AA402243C2604A68B2
:1013280002F00302022A90D004684FEA430E032217
:1013380002FA0EF224EA02044A6802F0030202FAF0
:101348000EF2224302604A6812F4403FC7D00022DE
:101358000192274A546C44F480445464526C02F459
:1013680080420192019A9C08A51C1F4A52F82550F8
:1013780003F003024FEA820E0F2202FA0EF225EA68
:1013880002051C4A90423FF474AF02F58062904215
:101398001AD002F58062904218D002F5806290421D
:1013A80016D002F58062904214D002F58062904215
:1013B80012D002F58062904210D002F5806290420D
:1013C8003FF455AF082255E7012253E7022251E7BF
:1013D80003224FE704224DE705224BE7062249E79F
:1013E80002B070BD704700BF00380140003C0140AA
:1013F8000038024000000240002800F0E08170B58B
:1014080082B00446036813F0010F3BD09F4B9B68E2
:1014180003F00C03042B2CD09C4B9B6803F00C03AB
:10142800082B21D06368B3F5803F4FD0B3F5A02FC8
:1014380052D0964B1A6822F480321A601A6822F445
:1014480080221A606368002B50D0FFF70DFC054618
:101458008E4B1B6813F4003F14D1FFF705FC401BAB
:101468006428F5D90320B1E1884B5B6813F4800F39
:10147800D8D0864B1B6813F4003F03D06368002B59
:1014880000F09F81236813F0020F54D07F4B9B68B4
:1014980013F00C0F3ED07D4B9B6803F00C03082B18
:1014A80033D0E368002B68D0794B01221A60FFF72C
:1014B800DBFB0546754B1B6813F0020F54D1FFF791
:1014C800D3FB401B0228F5D903207FE16F4A13683C
:1014D80043F480331360B5E76C4B1A6842F48022FA
:1014E8001A601A6842F480321A60ABE7FFF7BCFB57
:1014F8000546664B1B6813F4003FC3D0FFF7B4FBE7
:10150800401B6428F5D9032060E1604B5B6813F445
:10151800800FC6D15D4B1B6813F0020F03D0E36840
:10152800012B40F05081594A136823F0F8032169D0
:1015380043EAC1031360236813F0080F42D06369BC
:101548006BB3534B0122C3F8802EFFF78DFB054682
:101558004E4B5B6F13F0020F34D1FFF785FB401B36
:101568000228F5D9032031E1484A136823F0F8032B
:10157800216943EAC1031360DDE7454B00221A6085
:10158800FFF772FB0546414B1B6813F0020FD2D0E0
:10159800FFF76AFB401B0228F5D9032016E13C4BF4
:1015A8000022C3F8802EFFF75FFB0546374B5B6FC1
:1015B80013F0020F06D0FFF757FB401B0228F5D99E
:1015C800032003E1236813F0040F77D02F4B1B6C23
:1015D80013F0805F33D1002301932C4B1A6C42F037
:1015E80080521A641B6C03F080530193019B012500
:1015F800284B1B6813F4807F23D0A368012B34D0B9
:10160800052B38D0214B1A6F22F001021A671A6F86
:1016180022F004021A67A368002B3DD0FFF724FBD1
:1016280006461A4B1B6F13F0020F46D1FFF71CFB3F
:10163800801B41F288339842F3D90320C6E0002585
:10164800D6E7144A136843F480731360FFF70CFB62
:101658000646104B1B6813F4807FCED1FFF704FBBE
:10166800801B0228F5D90320B0E0084A136F43F025
:1016780001031367CFE7054B1A6F42F004021A679C
:101688001A6F42F001021A67C5E700BF003802402E
:101698000000474200700040FFF7E6FA0646524B4A
:1016A8001B6F13F0020F08D0FFF7DEFA801B41F220
:1016B80088339842F3D9032088E0EDB9A369002B59
:1016C80000F08380484A926802F00C02082A51D040
:1016D800022B17D0454B00221A66FFF7C5FA0446BD
:1016E800414B1B6813F0007F42D0FFF7BDFA001B87
:1016F8000228F5D9032069E03B4A136C23F0805394
:101708001364DBE7394B00221A66FFF7ADFA05468A
:10171800354B1B6813F0007F06D0FFF7A5FA401B76
:101728000228F5D9032051E0E369226A1343626A6B
:1017380043EA8213A26A5208013A43EA0243E26A80
:1017480043EA0263284A5360284B01221A66FFF7CE
:101758008BFA0446244B1B6813F0007F06D1FFF771
:1017680083FA001B0228F5D903202FE000202DE082
:1017780000202BE0012B2BD01B4B5B6803F480016E
:10178800E269914226D103F03F02216A8A4223D1BD
:10179800616A47F6C0721A40B2EB811F1ED103F48A
:1017A8004031A26A5208013AB1EB024F18D103F056
:1017B8007063E26AB3EB026F14D1002006E00120E7
:1017C8007047012002E0012000E0002002B070BD57
:1017D8000120FBE70120F9E70120F7E70120F5E701
:1017E8000120F3E70120F1E70038024000004742FA
:1017F80008B5314B9B6803F00C03042B57D0082B1A
:1018080057D12D4B5A6802F03F025B6813F4800FE2
:101818002AD0294B5968C1F3881C4FEA4C11B1EB07
:101828000C006EEB0E0E4FEA8E1343EA90638101B3
:10183800091A63EB0E03DB0043EA5173C90011EB8D
:101848000C0C43F10003590200234FEA4C2041EAF3
:10185800DC51FEF7B5FC184B5B68C3F30143013359
:101868005B00B0FBF3F025E0134B5968C1F3881C0B
:101878004FEA4C11B1EB0C006EEB0E0E4FEA8E13D3
:1018880043EA90638101091A63EB0E03DB0043EA24
:101898005173C90011EB0C0C43F1000399020023AA
:1018A8004FEA8C2041EA9C51FEF78AFCD3E70348B3
:1018B80000E0034808BD00BF0038024000127A006B
:1018C8000024F400002800F09B8070B50D46044603
:1018D8004F4B1B6803F007038B4208D2CBB24C4A2C
:1018E8001370136803F007038B4240F08B80236862
:1018F80013F0020F17D013F0040F04D0454A936871
:1019080043F4E0539360236813F0080F04D0414A6E
:10191800936843F4604393603E4A936823F0F0036E
:10192800A1680B439360236813F0010F32D06368FA
:10193800012B21D09A1E012A25D9364A126812F0A5
:10194800020F61D033498A6822F0030213438B6087
:10195800FFF78AF906462F4B9B6803F00C03626871
:10196800B3EB820F16D0FFF77FF9801B41F2883363
:101978009842F0D9032042E0264A126812F4003F48
:10198800E0D101203BE0234A126812F0007FD9D150
:10199800012034E01E4B1B6803F00703AB4207D954
:1019A800EAB21B4B1A701B6803F00703AB422DD138
:1019B800236813F0040F06D0164A936823F4E05303
:1019C800E1680B439360236813F0080F07D0114AAE
:1019D800936823F46043216943EAC1039360FFF7E6
:1019E80007FF0C4B9B68C3F303130B4AD35CD84027
:1019F8000A4B18600A4B1868FFF7EAF8002070BD18
:101A0800012070470120FAE70120F8E70120F6E7F6
:101A1800003C024000380240AC27000800000020CB
:101A280008000020014B1868704700BF0000002024
:101A380008B5FFF7F7FF044B9B68C3F38223034AFB
:101A4800D35CD84008BD00BF00380240BC2700085E
:101A580008B5FFF7E7FF044B9B68C3F34233034A1B
:101A6800D35CD84008BD00BF00380240BC2700083E
:101A780038B5FFF7F9F80446464A136843F00103FE
:101A88001360444B1B6813F0020F06D1FFF7ECF804
:101A9800001B0228F5D9032038BD3E4D2B6843F0C2
:101AA80080032B60FFF7E0F804460023AB60394B56
:101AB8009B6813F00C0F08D0FFF7D6F8001B41F213
:101AC80088339842F3D90320E6E7FFF7CDF80446B8
:101AD800304A136823F4502313602E4B1B6813F409
:101AE800003F06D0FFF7C0F8001B6428F5D9032093
:101AF800D2E7FFF7B9F80446264A136823F0807343
:101B08001360244B1B6813F0007F06D0FFF7ACF876
:101B1800001B0228F5D90320BEE7FFF7A5F8044605
:101B28001C4A136823F0806313601A4B1B6813F078
:101B3800006F06D0FFF798F8001B0228F5D903209C
:101B4800AAE7144B144A5A60144AC3F88420DA6886
:101B580022F4F852DA60DA6822F40052DA60DA68BD
:101B680042F41F02DA60DA6842F40012DA605A6F4F
:101B780022F001025A675A6F42F080725A67084B86
:101B8800084A1A60084B1868FFF722F8002883D023
:101B9800012081E7003802401030000400300020A6
:101BA800000000200024F40008000020026802F170
:101BB8000C0353E8003F23F0C0030C3242E8003125
:101BC8000029F3D1202380F83D307047026802F1E4
:101BD8000C0353E8003F23F490730C3242E80031C1
:101BE8000029F3D1026802F1140353E8003F23F0FF
:101BF8000103143242E800310029F3D1036B012BB1
:101C080005D0202380F83E30002303637047026824
:101C180002F10C0353E8003F23F010030C3242E8B2
:101C280000310029F3D1ECE790F83D30DBB2212BED
:101C380001D0022070478368B3F5805F17D0036A2C
:101C48005A1C02621A7803685A60C38C9BB2013B23
:101C58009BB2C3844BB90268D36823F08003D36076
:101C68000268D36843F04003D360002070470369DB
:101C7800002BE4D1036A1B880268C3F3080353608E
:101C8800036A02330362E0E738B504460268136961
:101C980023F44053C1680B431361836802691343FB
:101CA80042691343C2691A430168CB6823F4164397
:101CB80023F00C031343CB600268536923F4407389
:101CC80081690B4353610368314A934206D002F598
:101CD8008062934202D0FFF7ABFE01E0FFF7B8FE47
:101CE800E369B3F5004F29D00021031849411B18B7
:101CF80041F10001C90041EA5371DB00181863681B
:101D08004FEA83024FEA937341F10001FEF758FA54
:101D1800204DA5FB00325109642303FB11031B016D
:101D28003233A5FB03235B0903F0F00202EB011237
:101D380003F00F03216813448B6038BD0023021899
:101D480043EB0301121841F10001C90041EA527145
:101D5800D200101841F10001626892185B41FEF749
:101D68002FFA0C4DA5FB00325109642303FB110324
:101D7800DB003233A5FB03235B095A0002F4F87237
:101D880002EB011203F00703216813448B60D4E7C8
:101D9800001001401F85EB512DE9F84305460F4619
:101DA80016469946DDF820802C68246837EA040333
:101DB8000CBF4FF0010C4FF0000CB4452DD1B8F119
:101DC800FF3FF1D0B8F1000F05D0FEF74DFFA0EBB3
:101DD80009004045E8D92A6802F10C0353E8003F9E
:101DE80023F4D0730C3242E800310029F3D12A6879
:101DF80002F1140353E8003F23F00103143242E8D0
:101E080000310029F3D1202385F83D3085F83E3094
:101E1800002385F83C30032000E00020BDE8F8836B
:101E280058B310B5044690F83D300BB3242384F81A
:101E38003D302268D36823F40053D3602046FFF76F
:101E480023FF2268136923F49043136122685369BE
:101E580023F02A0353612268D36843F40053D36004
:101E680000202064202384F83D3084F83E3010BDE3
:101E780080F83C30FEF704FED8E7012070472DE9D2
:101E8800F04182B01E4690F83D30DBB2202B54D191
:101E980004460D469046002953D0002A53D090F8A6
:101EA8003C30012B51D0012380F83C3000230364DF
:101EB800212380F83D30FEF7D7FE0746A4F824809A
:101EC800A4F82680A368B3F5805F05D04FF000081A
:101ED800002384F83C3012E0236913B14FF0000866
:101EE800F6E7A8460025F3E738F8023B2268C3F373
:101EF80008035360E28C92B2013A92B2E284E38C16
:101F08009BB273B100963B46002280212046FFF722
:101F180043FFE0B9002DE7D015F8012B23685A607C
:101F2800E8E700963B46002240212046FFF734FFB1
:101F380078B9202384F83D3000E0022002B0BDE8E3
:101F4800F0810120FAE70120F8E70220F6E70320F4
:101F5800F4E70320F2E710B5044603685A6990F8DD
:101F68003D30DBB2212B0AD023685A6902F04002C7
:101F780094F83E30DBB2222B19D0002010BD02F0BD
:101F88008002002AF0D0226802F1140353E8003FCF
:101F980023F08003143242E800310029F3D1606B4A
:101FA80008B1FEF7ECFF2046FFF700FEDCE7002A49
:101FB800E3D0226802F1140353E8003F23F0400302
:101FC800143242E800310029F3D1A06B08B1FEF7C2
:101FD800D6FF2046FFF7FAFDCFE7704708B501683E
:101FE800CA6822F04002CA60202280F83D20FFF72C
:101FF800F4FF002008BD70477047704710B5846B28
:1020080023685A6994F83D30DBB2212B10D023683D
:102018005A6902F0400294F83E30DBB2222B11D00C
:10202800236C43F0100323642046FFF7E6FF10BD3E
:1020380002F08002002AEAD00023E3842046FFF75A
:10204800B5FDE4E7002AEBD00023E3852046FFF73F
:10205800BDFDE5E708B5806B0023C385C384FFF7A2
:10206800CCFF08BD704790F83E30DBB2222B67D119
:102078008368B3F5805F4DD0826AB3F5805F04D082
:10208800002B54D10369002B51D103685B6813708E
:10209800836A01338362C38D9BB2013B9BB2C385C4
:1020A800002B4FD100B583B00268D36823F020031A
:1020B800D3600268D36823F48073D36002685369DD
:1020C80023F001035361202380F83E30036B012B7A
:1020D80033D100230363026802F10C0353E8003F85
:1020E80023F010030C3242E800310029F3D10368D1
:1020F8001A6812F0100F06D0002201921A68019295
:102108005B680193019B818DFFF7ACFF002003B052
:102118005DF804FB0269002AAED1826A03685B6835
:10212800C3F308031380836A02338362B3E7036847
:102138005B6803F07F031370AAE7FFF75CFFE5E72E
:10214800022070470020704730B583B0044602680B
:102158001368D068516913F00F0505D113F0200FEB
:1021680002D010F0200F19D12DB111F0010119D1B1
:1021780010F4907F16D1216B01297DD013F0800FC8
:1021880003D010F0800F40F0158113F0400F03D0FA
:1021980010F0400F40F0128103B030BD2046FFF729
:1021A80062FFF9E713F0010F06D010F4807F03D027
:1021B800226C42F00102226413F0040F04D019B11A
:1021C800226C42F00202226413F0020F04D019B10B
:1021D800226C42F00402226413F0080F07D010F0BA
:1021E800200F00D119B1226C42F008022264226C3F
:1021F800002AD1D013F0200F02D010F0200F29D1DF
:1022080023685B6903F04003226C12F0080F00D1C9
:1022180063B32046FFF7DAFC23685B6913F0400FCD
:1022280020D0226802F1140353E8003F23F0400352
:10223800143242E800310029F3D1A36B73B1614A2B
:102248001A65A06BFEF7E5FE0028A5D0A06B036D0C
:102258009847A1E72046FFF706FFD1E72046FFF79A
:10226800CCFE99E72046FFF7C8FE95E72046FFF722
:10227800C4FE002323648FE713F0100F3FF47EAFF2
:1022880010F0100F3FF47AAF002301931368019305
:1022980053680193019B536913F0400F50D0A26B10
:1022A80013685B689BB2002B3FF476AFA18D99420F
:1022B8007FF672AFE385D369B3F5807F37D02268A4
:1022C80002F10C0353E8003F23F480730C3242E818
:1022D80000310029F3D1226802F1140353E8003FCA
:1022E80023F00103143242E800310029F3D12268B7
:1022F80002F1140353E8003F23F04003143242E88C
:1023080000310029F3D1202384F83E3000232363D1
:10231800226802F10C0353E8003F23F010030C324B
:1023280042E800310029F3D1A06BFEF728FEA18D09
:10233800E38D9BB2C91A89B22046FFF793FE2BE7BB
:10234800A18DE38D9BB2C91A89B2E38D9BB2002B94
:102358003FF422AF00293FF41FAF226802F10C03BB
:1023680053E8003F23F490730C3242E80030002811
:10237800F3D1226802F1140353E8003F23F001036C
:10238800143242E800300028F3D1202384F83E308C
:1023980000232363226802F10C0353E8003F23F073
:1023A80010030C3242E800300028F3D12046FFF732
:1023B80059FEF1E62046FFF737FCEDE62046FFF729
:1023C8000DFEE9E65D20000808B5806B036B012B64
:1023D80002D0FFF711FE08BD818D4908FFF742FEC4
:1023E800F9E708B50346806B1B681B6813F4807F08
:1023F8002BD10023C385026802F10C0353E8003F88
:1024080023F480730C3242E800310029F3D10268CA
:1024180002F1140353E8003F23F00103143242E8A9
:1024280000310029F3D1026802F1140353E8003F98
:1024380023F04003143242E800310029F3D120236D
:1024480080F83E30036B012B05D0036B012B0FD0B6
:10245800FFF7D1FD08BD026802F10C0353E8003F05
:1024680023F010030C3242E800310029F3D1ECE7E5
:10247800818DFFF7F7FDEDE730B583B004461346CD
:102488008162828500250564222280F83E20826BC5
:102498002048D063A26B20481064A26B1F48D06408
:1024A800A26B156520680A46011DA06BFEF732FD78
:1024B800019523681A6801925B680193019B84F86F
:1024C8003C5023695BB1226802F10C0353E8003FDA
:1024D80043F480730C3242E800310029F3D12268BA
:1024E80002F1140353E8003F43F00103143242E8B9
:1024F80000310029F3D1226802F1140353E8003FA8
:1025080043F04003143242E800310029F3D100209F
:1025180003B030BDEB230008D123000805200008D4
:1025280008B590F83E30DBB2202B0DD171B17AB1ED
:1025380090F83C30012B0DD0012380F83C3000236B
:102548000363FFF799FF00E0022008BD0120FCE7C4
:102558000120FAE70220F8E770B50D4E0D4D761B05
:10256800B61006D0002455F8043B01349847A6421B
:10257800F9D1094E094D761B00F008F9B61006D0BE
:10258800002455F8043B01349847A642F9D170BDA0
:10259800D8270008D8270008E0270008D82700080F
:1025A800032A10B517D940EA010C1CF0030F0446A2
:1025B8000B4623D119462046D1F800E0D0F800C0D8
:1025C800F44504F1040403F1040317D1043A032A7F
:1025D80020461946EED8541EA2B100F1FF3C01393D
:1025E80001E0C3180CD01CF801EF11F8012F964533
:1025F800A4EB0C03F5D0AEEB020010BD541EECE7C3
:10260800184610BD104610BD830730B548D0541E7B
:10261800002A3FD0CAB2034601E0013C3AD303F88E
:10262800012B9D07F9D1032C2DD9CDB245EA0525FB
:102638000F2C45EA054536D9A4F1100222F00F0CFB
:1026480003F1200EE6444FEA121C03F1100242E99E
:10265800045542E9025510327245F8D10CF10102D5
:1026680014F00C0F03EB021204F00F0C13D0ACF1B2
:10267800040323F003030433134442F8045B934236
:10268800FBD10CF003042CB1CAB21C4403F8012B93
:102698009C42FBD130BD64461346002CF4D1F9E7C7
:1026A80003461446BFE71A46A446E0E7024B13B1B7
:1026B800024800F005B8704700000000D526000861
:1026C800002301461A46184600F01AB838B5084BD8
:1026D800084D5B1B9C1007D0043B1D44013C55F87A
:1026E80004399847002CF9D1BDE8384000F054B8B7
:1026F800E4270008E0270008704700BF704700BFC4
:102708002DE9F047DFF87CA00646DAF80000984685
:102718000F469146FFF7F0FF1B4B1B68D3F8484163
:1027280024B365681F2D26DC5EB96B1C0235DAF808
:102738000000636044F82570FFF7E0FF0020BDE863
:10274800F08704EB85010123C1F88890D4F888212B
:10275800AB401A43022EC4F88821C1F80881E4D19D
:10276800D4F88C211343C4F88C31DEE703F5A67442
:10277800C3F84841D5E7DAF80000FFF7BFFF4FF08C
:10278800FF30DCE738040020CC270008F8B500BF8C
:10279800F8BC08BC9E467047F8B500BFF8BC08BC3A
:0427A8009E46704792
:1027AC0000000000000000000102030406070809F5
:1027BC0000000000010203040006101600061016AB
:0427CC0010000020D9
:0827D00028DAFF7F0100000080
:0827D800B5260008AD01000860
:0427E0008901000863
:1027E4000024F400010000001000000000000000BC
:1027F40000000000FC02002064030020CC03002041
:1028040000000000000000000000000000000000C4
:1028140000000000000000000000000000000000B4
:1028240000000000000000000000000000000000A4
:102834000000000000000000000000000000000094
:102844000000000000000000000000000000000084
:102854000000000000000000000000000000000074
:102864000000000000000000000000000000000064
:102874000000000000000000000000000000000054
:102884000000000000000000000000000000000044
:102894000000000000000000010000000000000033
:1028A4000E33CDAB34126DE6ECDE05000B000000F8
:1028B4000000000000000000000000000000000014
:1028C4000000000000000000000000000000000004
:1028D40000000000000000000000000000000000F4
:1028E40000000000000000000000000000000000E4
:0C2C14000000000000000000080D00207F
:0400000508000B855F
:00000001FF
